:100000000C942A000C9447000C9447000C94470071
:100010000C9447000C9447000C9447000C94470044
:100020000C9447000C9447000C9430040C94090481
:100030000C94DF030C9447000C9447000C94470089
:100040000C940D030C9447000C9447000C9447004B
:100050000C94470011241FBECFE5D8E0DEBFCDBF12
:1000600010E0A0E6B0E0EEEFFEE002C005900D92D9
:10007000AC37B107D9F720E0ACE7B0E001C01D9282
:10008000AB39B207E1F70E948F020C947D070C9404
:100090000000CF93DF93CDB7DEB727970FB6F89464
:1000A000DEBF0FBECDBF198286E08C831B8280E449
:1000B0008A831D821F821E82CE0101960E949402B5
:1000C0000E94940140E068E870E081E00E94D00264
:1000D000209188003091890040918A0050918B00D6
:1000E000A4E6B0E00E9479042FEF33E040E050E056
:1000F0000E945704209388003093890040938A001F
:1001000050938B0080E690E00E943402609188005A
:100110007091890080918A0090918B000E94610209
:1001200085E20E94D00180EC0E942C012091880081
:100130003091890040918A0050918B0068EE73E005
:1001400080E090E00E94570460EA70E080E090E078
:100150000E94570420938C0030938D0040938E00B2
:1001600050938F0010927C0010927D0010927E00C0
:1001700010927F00232B242B252B19F18FEF0E9447
:10018000D00180917C0090917D00A0917E00B09183
:100190007F000196A11DB11D80937C0090937D008E
:1001A000A0937E00B0937F0040918C0050918D0011
:1001B00060918E0070918F0084179507A607B7078E
:1001C000E8F288EE93E00E94F0000E9490012796EA
:1001D0000FB6F894DEBF0FBECDBFDF91CF9108956B
:1001E000CF93DF9300D000D01F92CDB7DEB7AB0125
:1001F000BC0119821A821B821C8289819A81AB817F
:10020000BC8184179507A607B707F0F41D828D817E
:100210008F3F31F08D818F5F8D838D818F3FD1F73F
:1002200089819A81AB81BC810196A11DB11D898311
:100230009A83AB83BC8389819A81AB81BC8184170B
:100240009507A607B70710F30F900F900F900F9028
:100250000F90DF91CF910895CF93C82F40E062E0D7
:1002600081E00E94A60340E064E081E00E94A603D2
:1002700061E070E080E090E00E94F00041E068E022
:1002800081E00E94A60361E070E080E090E00E94BF
:10029000F00080E00E9444038F709C2F907F682FB5
:1002A000692B80E00E94340361E070E080E090E020
:1002B0000E94F00040E068E081E00E94A60361E057
:1002C00070E080E090E00E94F00041E068E081E0B2
:1002D0000E94A60361E070E080E090E00E94F000E0
:1002E00080E00E9444038F7090E1C99F9001112427
:1002F000682F622B80E00E94340361E070E080E0B0
:1003000090E00E94F00040E068E081E00E94A603D7
:1003100061E070E080E090E00E94F000CF910895ED
:1003200081E00E942C01089564E170E080E090E09B
:100330000E94F00041E068E081E00E94550341E046
:1003400062E081E00E94550341E064E081E00E94A8
:10035000550341E060E180E00E94550341E060E226
:1003600080E00E94550341E060E480E00E94550374
:1003700041E060E880E00E94550382E00E942C0189
:1003800088E20E942C0186E00E942C0181E00E94FC
:100390002C018FE00E942C0180E80E942C0108951E
:1003A000CF93C82F41E062E081E00E94A60340E0C5
:1003B00064E081E00E94A60361E070E080E090E0EC
:1003C0000E94F00041E068E081E00E94A60361E045
:1003D00070E080E090E00E94F00080E00E94440322
:1003E0008F709C2F907F682F692B80E00E943403D0
:1003F00061E070E080E090E00E94F00040E068E0A2
:1004000081E00E94A60361E070E080E090E00E943D
:10041000F00041E068E081E00E94A60361E070E046
:1004200080E090E00E94F00080E00E9444038F7022
:1004300090E1C99F90011124682F622B80E00E94F7
:10044000340361E070E080E090E00E94F00040E062
:1004500068E081E00E94A60361E070E080E090E047
:100460000E94F000CF9108950F931F93CF93DF93D5
:100470008C01C0E0D0E01BC00E94D0012196C031A9
:10048000D10521F480EC0E942C0111C0C032D105AD
:1004900071F468EE73E080E090E00E94F00081E08B
:1004A0000E942C0180E80E942C01C0E0D0E0F801FD
:1004B00081918F018111E0CFDF91CF911F910F9139
:1004C00008950F931F93CF93DF93CDB7DEB7279790
:1004D0000FB6F894DEBF0FBECDBF9F938F937F936F
:1004E0006F938BE690E09F938F938E010F5F1F4F6A
:1004F0001F930F930E949304C8010E9434020FB609
:10050000F894DEBF0FBECDBF27960FB6F894DEBFBE
:100510000FBECDBFDF91CF911F910F9108950E9423
:10052000490080E090E00895CF93DF93EC0187E0ED
:10053000FE01A4E9B0E001900D928A95E1F796B131
:100540008881892B86B997B18981892B87B997B121
:100550008A81892B87B997B18B81892B87B996B10D
:100560008C81892B86B98C81883009F47894379AEC
:1005700046B1288130E081E090E002C0880F991FE9
:100580004A95E2F799272817390709F4369ADF9137
:10059000CF91089580919400811101C0369A0895F9
:1005A0001F93CF93DF93EB01142F97B1907E97B9F0
:1005B00097B1982B97B94AB321E030E0B90102C056
:1005C000660F771F8A95E2F7CB01809584238ABB5B
:1005D0000E94CA02111102C0349BFECF8091960086
:1005E000811108C084B125B1237090E0922B9983CA
:1005F00088830EC024B185B1229526952695237057
:1006000090E0880F991F880F991F822B9983888308
:100610003498DF91CF911F9108951F920F920FB6DA
:100620000F9211242F933F934F935F936F937F9378
:100630008F939F93AF93BF93EF93FF93E0919900B4
:10064000F0919A000995FF91EF91BF91AF919F9121
:100650008F917F916F915F914F913F912F910F906B
:100660000FBE0F901F901895813041F028F0823016
:1006700039F0833039F008956BBB089568BB089555
:1006800065BB089562BB0895813041F028F0823047
:1006900039F0833039F007C099B305C096B303C071
:1006A00093B301C090B3892F0895442319F04130CA
:1006B00049F10895813071F028F0823099F083304B
:1006C000C9F008958AB3862B8ABB8BB360956823E3
:1006D0006BBB089587B3862B87BB88B3609568236F
:1006E00068BB089584B3862B84BB85B3609568236B
:1006F00065BB089581B3862B81BB82B36095682367
:1007000062BB0895813069F028F0823089F083302F
:10071000B1F008958AB3862B8ABB8BB3682B6BBB71
:10072000089587B3862B87BB88B3682B68BB089571
:1007300084B3862B84BB85B3682B65BB089581B3D6
:10074000862B81BB82B3682B62BB0895442319F0CA
:100750004130E9F00895813059F028F0823069F095
:10076000833081F008958BB3609568236BBB089547
:1007700088B36095682368BB089585B36095682346
:1007800065BB089582B36095682362BB089581308C
:1007900051F028F0823059F0833069F008958BB31E
:1007A000682B6BBB089588B3682B68BB089585B32D
:1007B000682B65BB089582B3682B62BB08951F92B6
:1007C0000F920FB60F9211242F933F934F935F9385
:1007D0006F937F938F939F93AF93BF93EF93FF9309
:1007E000E0918000F09181000780F085E02D09956F
:1007F000FF91EF91BF91AF919F918F917F916F91F9
:100800005F914F913F912F910F900FBE0F901F90CE
:1008100018951F920F920FB60F9211242F933F93AA
:100820004F935F936F937F938F939F93AF93BF93F8
:10083000EF93FF93E0918200F09183000995FF917F
:10084000EF91BF91AF919F918F917F916F915F9148
:100850004F913F912F910F900FBE0F901F901895C1
:100860001F920F920FB60F9211242F933F934F9325
:100870005F936F937F938F939F93AF93BF93EF9308
:10088000FF93E0918200F09183000995FF91EF9131
:10089000BF91AF919F918F917F916F915F914F9198
:1008A0003F912F910F900FBE0F901F901895A1E2CE
:1008B0001A2EAA1BBB1BFD010DC0AA1FBB1FEE1FDA
:1008C000FF1FA217B307E407F50720F0A21BB30B25
:1008D000E40BF50B661F771F881F991F1A9469F7A1
:1008E00060957095809590959B01AC01BD01CF01FD
:1008F00008950E948404A59F900DB49F900DA49F1D
:10090000800D911D11240895A29FB001B39FC001D5
:10091000A39F700D811D1124911DB29F700D811D2B
:100920001124911D0895AEE0B0E0E9E9F4E00C94E3
:1009300054070D891E8986E08C831A8309838FEF03
:100940009FE79E838D83AE01475E5F4F6F89788DF1
:10095000CE0101960E94B504EF81F885E00FF11FEA
:1009600010822E96E4E00C947007ABE0B0E0EBEB65
:10097000F4E00C9446076C017B018A01FC011782AC
:100980001682838181FFCCC1CE0101963C01F60124
:100990009381F70193FD859193FF81917F018823D6
:1009A00009F4BAC1853239F493FD859193FF8191A1
:1009B0007F01853229F4B60190E00E94AC06E7CFB2
:1009C000912C212C312CFFE1F315D8F08B3279F0EA
:1009D00038F4803279F08332A1F4232D20611DC0D8
:1009E0008D3261F0803369F4232D216016C0832D90
:1009F0008260382EE32DE4603E2E2AC0F32DF8608D
:100A00001DC037FC2DC020ED280F2A3040F08E325B
:100A1000B9F436FC81C1232D2064322E19C036FE74
:100A200006C08AE0989E200D1124922E11C0EAE0A3
:100A30002E9E200D1124222EF32DF0623F2E08C091
:100A40008C3621F4832D8068382E02C0883641F41C
:100A5000F70193FD859193FF81917F018111B3CFC0
:100A6000982F9F7D9554933028F40C5F1F4F9FE380
:100A700099830DC0833631F0833771F0833509F0E7
:100A800059C021C0F801808189830E5F1F4F8824DF
:100A90008394912C530113C02801F2E04F0E511C96
:100AA000F801A080B18036FE03C0692D70E002C05D
:100AB0006FEF7FEFC5010E94A1064C018201F32D6B
:100AC000FF773F2E16C0280122E0420E511CF8018C
:100AD000A080B18036FE03C0692D70E002C06FEFC8
:100AE0007FEFC5010E9496064C01F32DF0683F2E62
:100AF000820133FC1BC0822D90E088169906B0F469
:100B0000B60180E290E00E94AC062A94F4CFF50191
:100B100037FC859137FE81915F01B60190E00E941C
:100B2000AC0621102A9421E0821A910881149104C4
:100B300071F7E8C0843611F0893641F5F80137FEC7
:100B400007C060817181828193810C5F1F4F08C053
:100B500060817181072E000C880B990B0E5F1F4F6F
:100B6000F32DFF763F2E97FF09C0909580957095E5
:100B700061957F4F8F4F9F4FF0683F2E2AE030E006
:100B8000A3010E94E806882E861845C0853731F4F7
:100B9000232D2F7EB22E2AE030E025C0932D997FA1
:100BA000B92E8F36C1F018F4883579F0B5C080378A
:100BB00019F0883721F0B0C0E92FE061BE2EB4FEF5
:100BC0000DC0FB2DF460BF2E09C034FE0AC0292FD2
:100BD0002660B22E06C028E030E005C020E130E0FB
:100BE00002C020E132E0F801B7FE07C060817181E8
:100BF000828193810C5F1F4F06C06081718180E00C
:100C000090E00E5F1F4FA3010E94E806882E861811
:100C1000FB2DFF773F2E36FE0DC0232D2E7FA22EFB
:100C2000891458F434FE0BC032FC09C0832D8E7E2B
:100C3000A82E05C0B82CA32C03C0B82C01C0B92C19
:100C4000A4FE0FC0FE01E80DF11D8081803321F468
:100C50009A2D997EA92E09C0A2FE06C0B394B39422
:100C600004C08A2D867809F0B394A3FC11C0A0FEBD
:100C700006C0B21488F4280C922C9B180EC0B21433
:100C800060F4B60180E290E00E94AC06B394F7CF26
:100C9000B21418F42B1802C0982C212CA4FE10C0FA
:100CA000B60180E390E00E94AC06A2FE17C0A1FC52
:100CB00003C088E790E002C088E590E0B6010CC070
:100CC0008A2D867859F0A1FE02C08BE201C080E235
:100CD000A7FC8DE2B60190E00E94AC06891438F4BE
:100CE000B60180E390E00E94AC069A94F7CF8A9414
:100CF000F301E80DF11D8081B60190E00E94AC0681
:100D00008110F5CF222009F442CEB60180E290E0B6
:100D10000E94AC062A94F6CFF6018681978102C024
:100D20008FEF9FEF2B96E2E10C946207FC01059098
:100D3000615070400110D8F7809590958E0F9F1FDD
:100D40000895FC016150704001900110D8F7809522
:100D500090958E0F9F1F08950F931F93CF93DF934E
:100D6000FB01238121FD03C08FEF9FEF2CC022FFE9
:100D700016C046815781248135814217530744F4B8
:100D8000A081B1819D012F5F3F4F318320838C93E0
:100D9000268137812F5F3F4F3783268314C08B0115
:100DA000EC01FB010084F185E02D0995892BE1F62A
:100DB000D80116968D919C911797019617969C9342
:100DC0008E931697CE01DF91CF911F910F910895C9
:100DD000FA01AA27283051F1203181F1E8946F936C
:100DE0006E7F6E5F7F4F8F4F9F4FAF4FB1E03ED012
:100DF000B4E03CD0670F781F891F9A1FA11D680FB0
:100E0000791F8A1F911DA11D6A0F711D811D911DE2
:100E1000A11D20D009F468943F912AE0269F112457
:100E20003019305D3193DEF6CF010895462F4770BB
:100E3000405D4193B3E00FD0C9F7F6CF462F4F7016
:100E4000405D4A3318F0495D31FD4052419302D074
:100E5000A9F7EACFB4E0A69597958795779567951A
:100E6000BA95C9F700976105710508959B01AC011A
:100E70000A2E06945795479537952795BA95C9F741
:100E8000620F731F841F951FA01D08952F923F921C
:100E90004F925F926F927F928F929F92AF92BF928A
:100EA000CF92DF92EF92FF920F931F93CF93DF9336
:100EB000CDB7DEB7CA1BDB0B0FB6F894DEBF0FBE93
:100EC000CDBF09942A88398848885F846E847D84E0
:100ED0008C849B84AA84B984C884DF80EE80FD80E2
:100EE0000C811B81AA81B981CE0FD11D0FB6F89458
:0E0EF000DEBF0FBECDBFED010895F894FFCF19
:100EFE0050455243203A2020202000256C64002DBE
:0C0F0E0000257325642E2530326400009D
:00000001FF
