:100000000C942A000C943F000C943F000C943F0089
:100010000C943F000C943F000C943F000C943F0064
:100020000C943F000C943F000C943F000C943F0054
:100030000C943F000C943F000C943F000C943F0044
:100040000C943F000C943F000C943F000C943F0034
:100050000C943F0011241FBECFE5D8E0DEBFCDBF1A
:1000600010E0A0E6B0E0ECE5F4E002C005900D92EF
:10007000A037B107D9F70E9478010C942C020C9498
:100080000000CF93C82F40E062E081E00E94F301BE
:1000900040E064E081E00E94F3018FE99FE0019776
:1000A000F1F700C0000041E068E081E00E94F30148
:1000B0008FE99FE00197F1F700C0000080E00E9407
:1000C00091018F709C2F907F682F692B80E00E9498
:1000D00081018FE99FE00197F1F700C0000040E047
:1000E00068E081E00E94F3018FE99FE00197F1F75A
:1000F00000C0000041E068E081E00E94F3018FE968
:100100009FE00197F1F700C0000080E00E9491019C
:100110008F7090E1C99F90011124682F622B80E0BD
:100120000E9481018FE99FE00197F1F700C0000074
:1001300040E068E081E00E94F3018FE99FE00197D1
:10014000F1F700C00000CF9108952FEF89EF90E004
:10015000215080409040E1F700C0000041E068E09D
:1001600081E00E94A20141E062E081E00E94A201E0
:1001700041E064E081E00E94A20141E060E180E0B2
:100180000E94A20141E060E280E00E94A20141E001
:1001900060E480E00E94A20141E060E880E00E940B
:1001A000A20182E00E94410088E20E94410086E0B4
:1001B0000E94410081E00E9441008FE00E944100C6
:1001C00080E80E9441000895CF93C82F41E062E08B
:1001D00081E00E94F30140E064E081E00E94F301CD
:1001E0008FE99FE00197F1F700C0000041E068E06F
:1001F00081E00E94F3018FE99FE00197F1F700C0D1
:10020000000080E00E9491018F709C2F907F682FEA
:10021000692B80E00E9481018FE99FE00197F1F74F
:1002200000C0000040E068E081E00E94F3018FE937
:100230009FE00197F1F700C0000041E068E081E035
:100240000E94F3018FE99FE00197F1F700C00000E1
:1002500080E00E9491018F7090E1C99F900111246C
:10026000682F622B80E00E9481018FE99FE0019757
:10027000F1F700C0000040E068E081E00E94F30177
:100280008FE99FE00197F1F700C00000CF9108953A
:100290000F931F93CF93DF938C01C0E0D0E01EC07B
:1002A0000E94E4002196C031D10521F480EC0E9427
:1002B000410014C0C032D10589F42FEF83ED90E3E3
:1002C000215080409040E1F700C0000081E00E9492
:1002D000410080E80E944100C0E0D0E0F801819137
:1002E0008F018111DDCFDF91CF911F910F91089583
:1002F0000E94A50080E690E00E94480180E090E026
:100300000895813041F028F0823039F0833039F09F
:1003100008956BBB089568BB089565BB089562BBE3
:100320000895813041F028F0823039F0833039F07F
:1003300007C099B305C096B303C093B301C090B38F
:10034000892F0895442319F0413049F108958130EF
:1003500071F028F0823099F08330C9F008958AB3A3
:10036000862B8ABB8BB3609568236BBB089587B3DC
:10037000862B87BB88B36095682368BB089584B3D8
:10038000862B84BB85B36095682365BB089581B3D4
:10039000862B81BB82B36095682362BB0895813050
:1003A00069F028F0823089F08330B1F008958AB383
:1003B000862B8ABB8BB3682B6BBB089587B3862BC8
:1003C00087BB88B3682B68BB089584B3862B84BB36
:1003D00085B3682B65BB089581B3862B81BB82B33F
:1003E000682B62BB0895442319F04130E9F0089569
:1003F000813059F028F0823069F0833081F008951F
:100400008BB3609568236BBB089588B360956823B0
:1004100068BB089585B36095682365BB089582B372
:100420006095682362BB0895813051F028F08230D6
:1004300059F0833069F008958BB3682B6BBB089536
:1004400088B3682B68BB089585B3682B65BB089596
:0C04500082B3682B62BB0895F894FFCFC4
:10045C006C6561726E20696E206465707468000052
:00000001FF
