:100000000C942A000C9447000C9447000C94470071
:100010000C9447000C9447000C9447000C94470044
:100020000C9447000C9447000C943E010C9417016B
:100030000C94B6000C9447000C9447000C944700B5
:100040000C9447000C9447000C9447000C94470014
:100050000C94470011241FBECFE5D8E0DEBFCDBF12
:1000600010E0A0E6B0E0EEECF2E002C005900D92E8
:10007000A036B107D9F720E0A0E6B0E001C01D929C
:10008000A936B207E1F70E9460000C9465010C9458
:100090000000CF93DF9300D000D01F92CDB7DEB722
:1000A000BB9A88E7898382E08A831B821D821C8237
:1000B000CE0101960E94E00084E60E940C01FCCF74
:1000C0000E94490080E090E00895442319F04130F7
:1000D00049F10895813071F028F0823099F0833031
:1000E000C9F008958AB3862B8ABB8BB360956823C9
:1000F0006BBB089587B3862B87BB88B36095682355
:1001000068BB089584B3862B84BB85B36095682350
:1001100065BB089581B3862B81BB82B3609568234C
:1001200062BB0895813069F028F0823089F0833015
:10013000B1F008958AB3862B8ABB8BB3682B6BBB57
:10014000089587B3862B87BB88B3682B68BB089557
:1001500084B3862B84BB85B3682B65BB089581B3BC
:10016000862B81BB82B3682B62BB08951F920F92CE
:100170000FB60F9211242F933F934F935F936F937A
:100180007F938F939F93AF93BF93EF93FF93E091F0
:100190006000F09161000780F085E02D0995FF91E6
:1001A000EF91BF91AF919F918F917F916F915F91EF
:1001B0004F913F912F910F900FBE0F901F90189568
:1001C000CF93DF93EC0185E0FE01A4E6B0E001905F
:1001D0000D928A95E1F793B78881892B83BF888137
:1001E000877F29F040E068E081E00E94650093B7D6
:1001F0008981892B83BF99B78A81892B89BF8A819D
:10020000882309F078948B819C819093630080937C
:100210006200DF91CF91089590916400983611F4B7
:100220008CBF0895983711F480958CBF08951F9264
:100230000F920FB60F9211242F933F934F935F931A
:100240006F937F938F939F93AF93BF93EF93FF939E
:10025000E0916200F09163000995FF91EF91BF91E9
:10026000AF919F918F917F916F915F914F913F914E
:100270002F910F900FBE0F901F9018951F920F9205
:100280000FB60F9211242F933F934F935F936F9369
:100290007F938F939F93AF93BF93EF93FF93E091DF
:1002A0006200F09163000995FF91EF91BF91AF91CA
:1002B0009F918F917F916F915F914F913F912F917E
:0E02C0000F900FBE0F901F901895F894FFCF6F
:00000001FF
