:100000000C942A000C9447000C9447000C94470071
:100010000C9447000C9447000C9447000C94470044
:100020000C9447000C9447000C945D010C9436012D
:100030000C94DE000C9447000C9447000C9447008D
:100040000C9447000C9447000C9447000C94470014
:100050000C94470011241FBECFE5D8E0DEBFCDBF12
:1000600010E0A0E6B0E0ECE0F3E002C005900D92F5
:10007000A036B107D9F720E0A0E6B0E001C01D929C
:10008000AD36B207E1F70E9488000C9484010C940D
:1000900000008091600090916100A0916200B09199
:1000A00063000196A11DB11D8093600090936100D3
:1000B000A0936200B093630081359F40A105B10514
:1000C00061F498B381E0892788BB10926000109298
:1000D000610010926200109263000895CF93DF9345
:1000E00000D000D01F92CDB7DEB7B89A84E60E9448
:1000F000340188E0898382E08A8381E08B8389E40C
:1001000090E09D838C83CE0101960E940801FFCF71
:100110000E946E0080E090E00895442319F0413081
:1001200049F10895813071F028F0823099F08330E0
:10013000C9F008958AB3862B8ABB8BB36095682378
:100140006BBB089587B3862B87BB88B36095682304
:1001500068BB089584B3862B84BB85B36095682300
:1001600065BB089581B3862B81BB82B360956823FC
:1001700062BB0895813069F028F0823089F08330C5
:10018000B1F008958AB3862B8ABB8BB3682B6BBB07
:10019000089587B3862B87BB88B3682B68BB089507
:1001A00084B3862B84BB85B3682B65BB089581B36C
:1001B000862B81BB82B3682B62BB08951F920F927E
:1001C0000FB60F9211242F933F934F935F936F932A
:1001D0007F938F939F93AF93BF93EF93FF93E091A0
:1001E0006400F09165000780F085E02D0995FF918E
:1001F000EF91BF91AF919F918F917F916F915F919F
:100200004F913F912F910F900FBE0F901F90189517
:10021000CF93DF93EC0185E0FE01A8E6B0E001900A
:100220000D928A95E1F793B78881892B83BF8881E6
:10023000877F29F040E068E081E00E948D0093B75D
:100240008981892B83BF99B78A81892B89BF8A814C
:10025000882309F078948B819C8190936700809328
:100260006600DF91CF9108958CBF08951F920F9281
:100270000FB60F9211242F933F934F935F936F9379
:100280007F938F939F93AF93BF93EF93FF93E091EF
:100290006600F09167000995FF91EF91BF91AF91D2
:1002A0009F918F917F916F915F914F913F912F918E
:1002B0000F900FBE0F901F9018951F920F920FB6C0
:1002C0000F9211242F933F934F935F936F937F93DC
:1002D0008F939F93AF93BF93EF93FF93E09166004B
:1002E000F09167000995FF91EF91BF91AF919F91B8
:1002F0008F917F916F915F914F913F912F910F90CF
:0C0300000FBE0F901F901895F894FFCFCF
:00000001FF
