:100000000C942A000C9447000C9447000C94470071
:100010000C9447000C9447000C9447000C94470044
:100020000C9447000C9447000C9447000C94470034
:100030000C9447000C9447000C9447000C94470024
:100040000C9447000C9447000C9447000C94470014
:100050000C94470011241FBECFE5D8E0DEBFCDBF12
:1000600010E0A0E6B0E0ECE2F8E002C005900D92EE
:10007000A43DB107D9F721E0A4EDB0E001C01D9285
:10008000A133B207E1F70E9403030C9414040C940B
:100090000000982F9D7F9D3239F08A5291E0823086
:1000A00008F090E0892F089581E00895AF92BF9203
:1000B000CF92DF92EF92FF921F93CF93DF936C0169
:1000C000162F23E030E040E050E06AEF70E08CEE65
:1000D00090E00E94650123E030E040E050E066EDF2
:1000E00070E089ED90E00E946501E091D400F0910C
:1000F000D5001582148211821082A090D400B09095
:10010000D500F5011382128216821782112309F499
:1001100063C0F60180818A3229F18F3219F1E10F33
:10012000F11D80810E944900E601EE24EA94E10E6F
:10013000F12CFFEFEF1AFF0AEC0CFD1C811112C02D
:1001400089910E944900882309F4A6C088810E94F1
:100150004900882309F4A0C089810E9449008823AE
:1001600009F49AC081E0F501878380EC0E94330294
:1001700080E690E00E94D30293C06991962F9D7F04
:100180009D3221F086ED860F823038F4E091D40064
:10019000F091D50066831F5F1CC0111105C08CEE65
:1001A00090E00E949F0115C0113029F489ED90E084
:1001B0000E949F010EC0E091D400F091D50083E031
:1001C000878380EC0E94330280E790E00E94D30294
:1001D00003C0EC16FD0689F6C091D400D091D5007D
:1001E00086ED90E00E947E039B838A83C091D400B9
:1001F000D091D5008AEF90E00E947E039983888396
:10020000E091D400F091D50086818B3249F018F44A
:100210008A32C1F02DC08D3261F08F3209F128C0D1
:100220002081318182819381820F931F9583848302
:100230001FC08081918122813381821B930B958322
:10024000848316C04081518122813381429FC00145
:10025000439F900D529F900D11249583848308C075
:1002600080819181628173810E94560375836483CA
:1002700080EC0E943302E091D400F091D5004AE076
:1002800050E067EE70E0848195810E949C0387EEC8
:1002900090E00E94D3020FC0EC16FD0609F050CF8B
:1002A000E6011150E12EF12CFFEFEF1AFF0AEC0CE2
:1002B000FD1C10E062CFDF91CF911F91FF90EF9076
:1002C000DF90CF90BF90AF900895FC01611571054C
:1002D00081F0718360837383628375836483228773
:1002E000338744875587168217821086118683E0EC
:1002F000089582E00895FC0182819381892BB9F0F1
:1003000080819181892BA9F084819581892B99F035
:10031000468157816085718582859385A485B585E1
:10032000481759076A077B0741F083E0089582E088
:10033000089582E0089582E0089581E008951F9372
:10034000CF93DF93EC01162F0E947B018330F9F4E9
:10035000288139814C815D814217530711F03B831D
:100360002A83EA81FB8110832A813B812F5F3F4FE3
:100370003B832A834E815F81688579854F5F5F4F1C
:100380006F4F7F4F4E835F836887798705C086E80C
:1003900090E00E94D40384E0DF91CF911F910895F3
:1003A000FC0182819381892B91F080819181892B3D
:1003B00081F084819581892B71F086819781A08558
:1003C000B185892B8A2B8B2B41F083E0089582E045
:1003D000089582E0089582E0089580E0089581B351
:1003E0008F6081BB8C988FEF82BB0895E0E0909A7C
:1003F000919A929A939AE13041F028F0E23039F0E4
:10040000E33039F007C0909805C0919803C09298E6
:1004100001C09398849B1AC0859B1AC0869B1AC002
:10042000879B1AC01BC0849BFECF859BFCCF869BFD
:10043000FACF879BF8CFF0E0EE0FFF1FEE0FFF1F04
:10044000EC54FF4FE80FF11D8081089580E0EBCF61
:1004500081E0E9CF82E0E7CF83E0E5CFEF5FE430F2
:1004600031F68FEF0895C198EFECF7E03197F1F78F
:1004700000C00000C39AEFECF7E03197F1F700C03D
:1004800000009BB39F70282F207F922B9BBBEFEC2B
:10049000F7E03197F1F700C00000C398EFECF7E008
:1004A0003197F1F700C00000C39AEFECF7E0319705
:1004B000F1F700C000002BB32F70F0E18F9FC00157
:1004C0001124822B8BBB8FEC97E00197F1F700C0D2
:1004D0000000C398EFECF7E03197F1F700C000009F
:1004E000089581E00E94330208958FE39CE901970B
:1004F000F1F700C0000087B38E6087BB8AB3806FBE
:100500008ABB82E00E94330288E20E94330286E0C6
:100510000E94330281E00E9433028FE00E94330286
:1005200080E80E9433020895C19AC298EFECF7E088
:100530003197F1F700C00000C39AEFECF7E0319774
:10054000F1F700C000009BB39F70282F207F922BF3
:100550009BBBEFECF7E03197F1F700C00000C398C8
:10056000EFECF7E03197F1F700C00000C39AEFEC31
:10057000F7E03197F1F700C000002BB32F70F0E1E6
:100580008F9FC0011124822B8BBB8FEC97E00197CA
:10059000F1F700C00000C398EFECF7E03197F1F7F6
:1005A00000C0000008950F931F93CF93DF938C0139
:1005B000C0E0D0E01EC00E9494022196C031D10557
:1005C00021F480EC0E94330214C0C032D10589F4BA
:1005D0002FEF89E698E1215080409040E1F700C07C
:1005E000000081E00E94330280E80E943302C0E0F4
:1005F000D0E0F80181918F018111DDCFDF91CF91A2
:100600001F910F9108950E9475020E94EF0120E151
:1006100030E040E050E06BE171E08DE091E00E945D
:100620006501D0E00E94F601C82F8F3FD9F38334D3
:1006300069F40E94710220E130E040E050E06BE19B
:1006400071E08DE091E00E946501ECCF0E94940280
:100650006C2F8DE091E00E949F01CD3329F58DE054
:1006600091E00E94D00181111AC084EC90E00E94B8
:10067000D3022FEF89E698E1215080409040E1F7C6
:1006800000C000000E94710220E130E040E050E034
:100690006BE171E08DE091E00E94650105C06D2F76
:1006A0008BE191E00E945600DF5FBCCF97FB072EE5
:1006B00016F4009407D077FD09D00E946A0307FC66
:1006C00005D03EF4909581959F4F08957095619562
:1006D0007F4F0895AA1BBB1B51E107C0AA1FBB1F78
:1006E000A617B70710F0A61BB70B881F991F5A95BE
:1006F000A9F780959095BC01CD010895FC0188274C
:100700009927E89421912032E9F3293010F02E3016
:10071000C8F32B3241F02D3239F4689404C00E94A2
:10072000B203820F911D219120532A30C0F31EF491
:10073000909581959F4F08954532510520F44230A0
:1007400010F00C94A703FB011082CB010895BB2786
:100750004A3031F4992322F4BDE2909581959F4F60
:100760000C94BB037AE0979F902D879F802D910D6D
:1007700011240895BB27FB015527AA27880F991F2D
:10078000AA1FA41710F0A41B83955051B9F7A05DC0
:10079000AA3308F0A95DA193009779F7B111B1933D
:1007A0001192CB010C9404040F931F93CF93DF930A
:1007B000E0912D01F0912E01238121FF1BC08C01BE
:1007C000D0E0C0E0F80181918F0160912D0170911E
:1007D0002E01DB011896ED91FC911997882331F0D9
:1007E0000995892B79F3DFEFCFEFECCF8AE00995FC
:1007F000892B19F08FEF9FEF02C08D2F9C2FDF9177
:10080000CF911F910F910895DC01FC01672F719129
:100810007723E1F7329704C07C916D9370836291E6
:0C082000AE17BF07C8F30895F894FFCF8F
:10082C0043414C432053594E544158204552520099
:10083C0043414C43204F5554204F462052414E4784
:10084C004520455252004649464F20456571756515
:10085C007565206973206661696C6564004649465C
:10086C004F204465717565756520697320666169F3
:10087C006C6564003738392F3435362A3132332DD4
:10088C0043303D2B4E4F2056414C494420494E504D
:04089C0055540000AF
:00000001FF
