:100000000C942A000C943F000C943F000C943F0089
:100010000C943F000C943F000C943F000C943F0064
:100020000C943F000C943F000C943F000C943F0054
:100030000C943F000C943F000C943F000C943F0044
:100040000C943F000C943F000C943F000C943F0034
:100050000C943F0011241FBECFE5D8E0DEBFCDBF1A
:1000600010E0A0E6B0E0E4E5F5E002C005900D92F6
:10007000AA37B107D9F70E94AE010C94A8020C94DC
:100080000000CF93DF9300D000D01F92CDB7DEB732
:10009000AB01BC0119821A821B821C8289819A8160
:1000A000AB81BC8184179507A607B707F0F41D82C2
:1000B0008D818F3F31F08D818F5F8D838D818F3F5B
:1000C000D1F789819A81AB81BC810196A11DB11DB7
:1000D00089839A83AB83BC8389819A81AB81BC81FC
:1000E00084179507A607B70710F30F900F900F908E
:1000F0000F900F90DF91CF910895CF93C82F40E0DC
:1001000062E081E00E94310240E064E081E00E9410
:10011000310261E070E080E090E00E94410041E047
:1001200068E081E00E94310261E070E080E090E0F0
:100130000E94410080E00E94CF018F709C2F907F31
:10014000682F692B80E00E94BF0161E070E080E0D1
:1001500090E00E94410040E068E081E00E943102AE
:1001600061E070E080E090E00E94410041E068E0E2
:1001700081E00E94310261E070E080E090E00E9446
:10018000410080E00E94CF018F7090E1C99F9001F3
:100190001124682F622B80E00E94BF0161E070E0B3
:1001A00080E090E00E94410040E068E081E00E9431
:1001B000310261E070E080E090E00E944100CF9168
:1001C000089564E170E080E090E00E94410041E029
:1001D00068E081E00E94E00141E062E081E00E948D
:1001E000E00141E064E081E00E94E00141E060E183
:1001F00080E00E94E00141E060E280E00E94E001D6
:1002000041E060E480E00E94E00141E060E880E0DD
:100210000E94E00182E00E947D0088E20E947D0051
:1002200086E00E947D0081E00E947D008FE00E94B8
:100230007D0080E80E947D000895CF93C82F41E0A3
:1002400062E081E00E94310240E064E081E00E94CF
:10025000310261E070E080E090E00E94410041E006
:1002600068E081E00E94310261E070E080E090E0AF
:100270000E94410080E00E94CF018F709C2F907FF0
:10028000682F692B80E00E94BF0161E070E080E090
:1002900090E00E94410040E068E081E00E9431026D
:1002A00061E070E080E090E00E94410041E068E0A1
:1002B00081E00E94310261E070E080E090E00E9405
:1002C000410080E00E94CF018F7090E1C99F9001B2
:1002D0001124682F622B80E00E94BF0161E070E072
:1002E00080E090E00E94410040E068E081E00E94F0
:1002F000310261E070E080E090E00E944100CF9127
:1003000008950F931F93CF93DF938C01C0E0D0E04B
:100310001BC00E941D012196C031D10521F480EC43
:100320000E947D0011C0C032D10571F468EE73E007
:1003300080E090E00E94410081E00E947D0080E822
:100340000E947D00C0E0D0E0F80181918F01811111
:10035000E0CFDF91CF911F910F9108950E94E100AE
:1003600080E690E00E9481010E946A028FE690E0A0
:100370000E948E020E949D020E948101FBCF81306B
:1003800041F028F0823039F0833039F008956BBBAA
:10039000089568BB089565BB089562BB08958130D8
:1003A00041F028F0823039F0833039F007C099B33A
:1003B00005C096B303C093B301C090B3892F0895CD
:1003C000442319F0413049F10895813071F028F04B
:1003D000823099F08330C9F008958AB3862B8ABBA6
:1003E0008BB3609568236BBB089587B3862B87BB5F
:1003F00088B36095682368BB089584B3862B84BB5B
:1004000085B36095682365BB089581B3862B81BB56
:1004100082B36095682362BB0895813069F028F04B
:10042000823089F08330B1F008958AB3862B8ABB7D
:100430008BB3682B6BBB089587B3862B87BB88B3C0
:10044000682B68BB089584B3862B84BB85B3682B67
:1004500065BB089581B3862B81BB82B3682B62BBD9
:100460000895442319F04130E9F00895813059F09E
:1004700028F0823069F0833081F008958BB3609565
:1004800068236BBB089588B36095682368BB0895A3
:1004900085B36095682365BB089582B36095682332
:1004A00062BB0895813051F028F0823059F08330DA
:1004B00069F008958BB3682B6BBB089588B3682BE4
:1004C00068BB089585B3682B65BB089582B3682B1C
:1004D00062BB0895549A539A599880B5806880BD3C
:1004E00080B58F7B80BD83E389B980B5826080BD94
:1004F00080B5846080BD529880B58F7E80BD80B508
:100500008F7D80BD80B5877F80BD08955D9BFECFC8
:100510008CB908955F9BFECF8CB10895CF93DF9384
:10052000EC018881882331F021960E94860289910E
:100530008111FBCFDF91CF9108950E948A0283320F
:1005400021F00E948A028332E1F780E090E0089572
:04055000F894FFCF4D
:100554006C6561726E20696E206465707468005504
:0A05640041525420494E4954000052
:00000001FF
